{
  "_format": "hh-sol-artifact-1",
  "contractName": "MessageDigest",
  "sourceName": "contracts/MessageDigest.sol",
  "abi": [
    {
      "inputs": [],
      "stateMutability": "nonpayable",
      "type": "constructor"
    },
    {
      "anonymous": false,
      "inputs": [
        {
          "indexed": true,
          "internalType": "uint256",
          "name": "index",
          "type": "uint256"
        },
        {
          "indexed": true,
          "internalType": "bytes32",
          "name": "hash",
          "type": "bytes32"
        },
        {
          "indexed": true,
          "internalType": "address",
          "name": "recorder",
          "type": "address"
        },
        {
          "indexed": false,
          "internalType": "uint256",
          "name": "timestamp",
          "type": "uint256"
        }
      ],
      "name": "HashRecorded",
      "type": "event"
    },
    {
      "anonymous": false,
      "inputs": [
        {
          "indexed": true,
          "internalType": "address",
          "name": "previousOwner",
          "type": "address"
        },
        {
          "indexed": true,
          "internalType": "address",
          "name": "newOwner",
          "type": "address"
        }
      ],
      "name": "OwnershipTransferred",
      "type": "event"
    },
    {
      "inputs": [],
      "name": "digestCount",
      "outputs": [
        {
          "internalType": "uint256",
          "name": "",
          "type": "uint256"
        }
      ],
      "stateMutability": "view",
      "type": "function"
    },
    {
      "inputs": [
        {
          "internalType": "uint256",
          "name": "index",
          "type": "uint256"
        }
      ],
      "name": "getDigest",
      "outputs": [
        {
          "internalType": "bytes32",
          "name": "hash",
          "type": "bytes32"
        },
        {
          "internalType": "uint256",
          "name": "timestamp",
          "type": "uint256"
        },
        {
          "internalType": "address",
          "name": "recorder",
          "type": "address"
        }
      ],
      "stateMutability": "view",
      "type": "function"
    },
    {
      "inputs": [
        {
          "internalType": "bytes32",
          "name": "hash",
          "type": "bytes32"
        }
      ],
      "name": "getIndexByHash",
      "outputs": [
        {
          "internalType": "uint256",
          "name": "index",
          "type": "uint256"
        },
        {
          "internalType": "bool",
          "name": "exists",
          "type": "bool"
        }
      ],
      "stateMutability": "view",
      "type": "function"
    },
    {
      "inputs": [],
      "name": "owner",
      "outputs": [
        {
          "internalType": "address",
          "name": "",
          "type": "address"
        }
      ],
      "stateMutability": "view",
      "type": "function"
    },
    {
      "inputs": [
        {
          "internalType": "bytes32",
          "name": "hash",
          "type": "bytes32"
        }
      ],
      "name": "recordHash",
      "outputs": [
        {
          "internalType": "uint256",
          "name": "index",
          "type": "uint256"
        }
      ],
      "stateMutability": "nonpayable",
      "type": "function"
    },
    {
      "inputs": [
        {
          "internalType": "address",
          "name": "newOwner",
          "type": "address"
        }
      ],
      "name": "transferOwnership",
      "outputs": [],
      "stateMutability": "nonpayable",
      "type": "function"
    }
  ],
  "bytecode": "0x608060405234801561001057600080fd5b50600080546001600160a01b0319163390811782556040519091907f8be0079c531659141344cd1fd0a4f28419497f9722a3daafe3b4186f6b6457e0908290a36106168061005f6000396000f3fe608060405234801561001057600080fd5b50600436106100615760003560e01c8062287b14146100665780633409b55c14610093578063631db1b9146100a55780638da5cb5b146100dc578063ece1183614610107578063f2fde38b1461011a575b600080fd5b6100796100743660046104fd565b61012f565b604080519283529015156020830152015b60405180910390f35b6001545b60405190815260200161008a565b6100b86100b33660046104fd565b610169565b6040805193845260208401929092526001600160a01b03169082015260600161008a565b6000546100ef906001600160a01b031681565b6040516001600160a01b03909116815260200161008a565b6100976101153660046104fd565b61021a565b61012d610128366004610516565b610422565b005b60008181526002602052604081205481908082036101535750600093849350915050565b61015e60018261055c565b946001945092505050565b600080600060018054905084106101d25760405162461bcd60e51b815260206004820152602260248201527f4d6573736167654469676573743a20696e646578206f7574206f6620626f756e604482015261647360f01b60648201526084015b60405180910390fd5b6000600185815481106101e7576101e7610575565b600091825260209091206003909102018054600182015460029092015490979196506001600160a01b0316945092505050565b600080546001600160a01b031633146102455760405162461bcd60e51b81526004016101c99061058b565b816102925760405162461bcd60e51b815260206004820152601860248201527f4d6573736167654469676573743a207a65726f2068617368000000000000000060448201526064016101c9565b600082815260026020526040902054156102fa5760405162461bcd60e51b8152602060048201526024808201527f4d6573736167654469676573743a206861736820616c7265616479207265636f6044820152631c99195960e21b60648201526084016101c9565b60408051606081018252838152426020820190815233928201928352600180548082018255600082905292517fb10e2d527612073b26eecdfd717e6a320cf44b4afac2b0732d9fcbe2b7fa0cf660039094029384015590517fb10e2d527612073b26eecdfd717e6a320cf44b4afac2b0732d9fcbe2b7fa0cf783015591517fb10e2d527612073b26eecdfd717e6a320cf44b4afac2b0732d9fcbe2b7fa0cf890910180546001600160a01b0319166001600160a01b0390921691909117905580546103c5919061055c565b90506103d28160016105cd565b60008381526002602090815260409182902092909255514281523391849184917f9bd03174aa06f4160a4ff3f5e0b3b75acd58ba4c3e49fb04233990261becfa05910160405180910390a4919050565b6000546001600160a01b0316331461044c5760405162461bcd60e51b81526004016101c99061058b565b6001600160a01b0381166104a25760405162461bcd60e51b815260206004820152601b60248201527f4d6573736167654469676573743a207a65726f2061646472657373000000000060448201526064016101c9565b600080546040516001600160a01b03808516939216917f8be0079c531659141344cd1fd0a4f28419497f9722a3daafe3b4186f6b6457e091a3600080546001600160a01b0319166001600160a01b0392909216919091179055565b60006020828403121561050f57600080fd5b5035919050565b60006020828403121561052857600080fd5b81356001600160a01b038116811461053f57600080fd5b9392505050565b634e487b7160e01b600052601160045260246000fd5b8181038181111561056f5761056f610546565b92915050565b634e487b7160e01b600052603260045260246000fd5b60208082526022908201527f4d6573736167654469676573743a2063616c6c6572206973206e6f74206f776e60408201526132b960f11b606082015260800190565b8082018082111561056f5761056f61054656fea26469706673582212204f7ef712c0243a3b7a8ea58a4b7223431ba1a71cc95b654a8ae9a116cf17e70664736f6c63430008140033",
  "linkReferences": {},
  "deployedLinkReferences": {}
}