{
  "_format": "hh-sol-artifact-1",
  "contractName": "KeyRegistry",
  "sourceName": "contracts/KeyRegistry.sol",
  "abi": [
    {
      "inputs": [],
      "stateMutability": "nonpayable",
      "type": "constructor"
    },
    {
      "anonymous": false,
      "inputs": [
        {
          "indexed": true,
          "internalType": "bytes32",
          "name": "identity",
          "type": "bytes32"
        },
        {
          "indexed": false,
          "internalType": "bytes32",
          "name": "x25519Key",
          "type": "bytes32"
        },
        {
          "indexed": false,
          "internalType": "uint32",
          "name": "version",
          "type": "uint32"
        },
        {
          "indexed": false,
          "internalType": "uint256",
          "name": "timestamp",
          "type": "uint256"
        }
      ],
      "name": "KeyRegistered",
      "type": "event"
    },
    {
      "anonymous": false,
      "inputs": [
        {
          "indexed": true,
          "internalType": "bytes32",
          "name": "identity",
          "type": "bytes32"
        },
        {
          "indexed": false,
          "internalType": "uint32",
          "name": "version",
          "type": "uint32"
        },
        {
          "indexed": false,
          "internalType": "uint256",
          "name": "timestamp",
          "type": "uint256"
        }
      ],
      "name": "KeyRevoked",
      "type": "event"
    },
    {
      "anonymous": false,
      "inputs": [
        {
          "indexed": true,
          "internalType": "address",
          "name": "previousRegistrar",
          "type": "address"
        },
        {
          "indexed": true,
          "internalType": "address",
          "name": "newRegistrar",
          "type": "address"
        }
      ],
      "name": "RegistrarTransferred",
      "type": "event"
    },
    {
      "inputs": [
        {
          "internalType": "bytes32",
          "name": "identity",
          "type": "bytes32"
        }
      ],
      "name": "getKey",
      "outputs": [
        {
          "internalType": "bytes32",
          "name": "x25519Key",
          "type": "bytes32"
        },
        {
          "internalType": "uint32",
          "name": "version",
          "type": "uint32"
        },
        {
          "internalType": "uint64",
          "name": "updatedAt",
          "type": "uint64"
        },
        {
          "internalType": "bool",
          "name": "revoked",
          "type": "bool"
        }
      ],
      "stateMutability": "view",
      "type": "function"
    },
    {
      "inputs": [
        {
          "internalType": "bytes32",
          "name": "identity",
          "type": "bytes32"
        },
        {
          "internalType": "bytes32",
          "name": "x25519Key",
          "type": "bytes32"
        }
      ],
      "name": "registerKey",
      "outputs": [],
      "stateMutability": "nonpayable",
      "type": "function"
    },
    {
      "inputs": [],
      "name": "registrar",
      "outputs": [
        {
          "internalType": "address",
          "name": "",
          "type": "address"
        }
      ],
      "stateMutability": "view",
      "type": "function"
    },
    {
      "inputs": [
        {
          "internalType": "bytes32",
          "name": "identity",
          "type": "bytes32"
        }
      ],
      "name": "revokeKey",
      "outputs": [],
      "stateMutability": "nonpayable",
      "type": "function"
    },
    {
      "inputs": [
        {
          "internalType": "bytes32",
          "name": "identity",
          "type": "bytes32"
        },
        {
          "internalType": "bytes32",
          "name": "newX25519Key",
          "type": "bytes32"
        }
      ],
      "name": "rotateKey",
      "outputs": [],
      "stateMutability": "nonpayable",
      "type": "function"
    },
    {
      "inputs": [
        {
          "internalType": "address",
          "name": "newRegistrar",
          "type": "address"
        }
      ],
      "name": "transferRegistrar",
      "outputs": [],
      "stateMutability": "nonpayable",
      "type": "function"
    }
  ],
  "bytecode": "0x608060405234801561001057600080fd5b50600080546001600160a01b0319163390811782556040519091907fed6f22d50c794502c2d865198855205c3c33e21f8cc727a7e442131dcfae88aa908290a36108798061005f6000396000f3fe608060405234801561001057600080fd5b50600436106100625760003560e01c806312aaac70146100675780632b20e397146100f0578063572f22101461011b5780639be2baec14610130578063a0186cfa14610143578063b08a906614610156575b600080fd5b6100b5610075366004610762565b600090815260016020819052604090912080549101549091600160401b820463ffffffff169167ffffffffffffffff811691600160601b90910460ff1690565b6040805194855263ffffffff909316602085015267ffffffffffffffff90911691830191909152151560608201526080015b60405180910390f35b600054610103906001600160a01b031681565b6040516001600160a01b0390911681526020016100e7565b61012e610129366004610762565b610169565b005b61012e61013e36600461077b565b6102ed565b61012e6101513660046107ab565b6103c8565b61012e6101643660046107ab565b61056f565b6000546001600160a01b0316331461019c5760405162461bcd60e51b8152600401610193906107cd565b60405180910390fd5b60008181526001602081905260408220908101549091600160401b90910463ffffffff16900361020e5760405162461bcd60e51b815260206004820152601b60248201527f4b657952656769737472793a206e6f74207265676973746572656400000000006044820152606401610193565b6001810154600160601b900460ff161561026a5760405162461bcd60e51b815260206004820152601c60248201527f4b657952656769737472793a20616c7265616479207265766f6b6564000000006044820152606401610193565b600181018054600160601b6cff00000000ffffffffffffffff199091164267ffffffffffffffff811691909117919091179182905560408051600160401b90930463ffffffff168352602083019190915283917f62db979b46b61a2c8ec127201e75b82b7a2dc57beb69834882857b7e9823d2fc91015b60405180910390a25050565b6000546001600160a01b031633146103175760405162461bcd60e51b8152600401610193906107cd565b6001600160a01b03811661036d5760405162461bcd60e51b815260206004820152601b60248201527f4b657952656769737472793a207a65726f2072656769737472617200000000006044820152606401610193565b600080546040516001600160a01b03808516939216917fed6f22d50c794502c2d865198855205c3c33e21f8cc727a7e442131dcfae88aa91a3600080546001600160a01b0319166001600160a01b0392909216919091179055565b6000546001600160a01b031633146103f25760405162461bcd60e51b8152600401610193906107cd565b806104375760405162461bcd60e51b81526020600482015260156024820152744b657952656769737472793a207a65726f206b657960581b6044820152606401610193565b60008281526001602081905260409091200154600160401b900463ffffffff16156104a45760405162461bcd60e51b815260206004820152601f60248201527f4b657952656769737472793a20616c72656164792072656769737465726564006044820152606401610193565b6040805160808101825282815267ffffffffffffffff4281811660208085019182526001858701818152600060608089018281528c8352848652918a90209851895594519783018054925191511515600160601b0260ff60601b1963ffffffff909316600160401b026bffffffffffffffffffffffff1990941699909816989098179190911716949094179094558451868152938401929092529282019290925283917f71c244f07b379eef0388e28f61fe56517e175de214e73a40f2bab01becbe81a691016102e1565b6000546001600160a01b031633146105995760405162461bcd60e51b8152600401610193906107cd565b806105de5760405162461bcd60e51b81526020600482015260156024820152744b657952656769737472793a207a65726f206b657960581b6044820152606401610193565b60008281526001602081905260408220908101549091600160401b90910463ffffffff1690036106505760405162461bcd60e51b815260206004820152601b60248201527f4b657952656769737472793a206e6f74207265676973746572656400000000006044820152606401610193565b80548290036106a15760405162461bcd60e51b815260206004820152601a60248201527f4b657952656769737472793a206b657920756e6368616e6765640000000000006044820152606401610193565b8181556001808201805467ffffffffffffffff19164267ffffffffffffffff16178082556008906106e0908490600160401b900463ffffffff16610811565b82546101009290920a63ffffffff81810219909316918316021790915560018301805460ff60601b19169081905560408051868152600160401b909204909216602082015242918101919091528491507f71c244f07b379eef0388e28f61fe56517e175de214e73a40f2bab01becbe81a69060600160405180910390a2505050565b60006020828403121561077457600080fd5b5035919050565b60006020828403121561078d57600080fd5b81356001600160a01b03811681146107a457600080fd5b9392505050565b600080604083850312156107be57600080fd5b50508035926020909101359150565b60208082526024908201527f4b657952656769737472793a2063616c6c6572206973206e6f742072656769736040820152633a3930b960e11b606082015260800190565b63ffffffff81811683821601908082111561083c57634e487b7160e01b600052601160045260246000fd5b509291505056fea2646970667358221220372c32a8eb2c977f5f350f1ae41ed999270448e937929345aa4796030c18916464736f6c63430008140033",
  "linkReferences": {},
  "deployedLinkReferences": {}
}