{
  "_format": "hh-sol-artifact-1",
  "contractName": "MessageReceipt",
  "sourceName": "contracts/MessageReceipt.sol",
  "abi": [
    {
      "inputs": [],
      "stateMutability": "nonpayable",
      "type": "constructor"
    },
    {
      "anonymous": false,
      "inputs": [
        {
          "indexed": true,
          "internalType": "bytes32",
          "name": "ciphertextHash",
          "type": "bytes32"
        },
        {
          "indexed": true,
          "internalType": "bytes32",
          "name": "senderHash",
          "type": "bytes32"
        },
        {
          "indexed": true,
          "internalType": "bytes32",
          "name": "recipientHash",
          "type": "bytes32"
        },
        {
          "indexed": false,
          "internalType": "uint256",
          "name": "timestamp",
          "type": "uint256"
        }
      ],
      "name": "ReceiptPosted",
      "type": "event"
    },
    {
      "anonymous": false,
      "inputs": [
        {
          "indexed": true,
          "internalType": "address",
          "name": "previousServer",
          "type": "address"
        },
        {
          "indexed": true,
          "internalType": "address",
          "name": "newServer",
          "type": "address"
        }
      ],
      "name": "ServerTransferred",
      "type": "event"
    },
    {
      "inputs": [
        {
          "internalType": "bytes32",
          "name": "ciphertextHash",
          "type": "bytes32"
        }
      ],
      "name": "getReceipt",
      "outputs": [
        {
          "internalType": "bool",
          "name": "exists",
          "type": "bool"
        },
        {
          "internalType": "bytes32",
          "name": "senderHash",
          "type": "bytes32"
        },
        {
          "internalType": "bytes32",
          "name": "recipientHash",
          "type": "bytes32"
        },
        {
          "internalType": "uint64",
          "name": "timestamp",
          "type": "uint64"
        },
        {
          "internalType": "uint64",
          "name": "blockNumber",
          "type": "uint64"
        }
      ],
      "stateMutability": "view",
      "type": "function"
    },
    {
      "inputs": [
        {
          "internalType": "bytes32",
          "name": "ciphertextHash",
          "type": "bytes32"
        },
        {
          "internalType": "bytes32",
          "name": "senderHash",
          "type": "bytes32"
        },
        {
          "internalType": "bytes32",
          "name": "recipientHash",
          "type": "bytes32"
        }
      ],
      "name": "postReceipt",
      "outputs": [],
      "stateMutability": "nonpayable",
      "type": "function"
    },
    {
      "inputs": [],
      "name": "server",
      "outputs": [
        {
          "internalType": "address",
          "name": "",
          "type": "address"
        }
      ],
      "stateMutability": "view",
      "type": "function"
    },
    {
      "inputs": [
        {
          "internalType": "address",
          "name": "newServer",
          "type": "address"
        }
      ],
      "name": "transferServer",
      "outputs": [],
      "stateMutability": "nonpayable",
      "type": "function"
    }
  ],
  "bytecode": "0x608060405234801561001057600080fd5b50600080546001600160a01b0319163390811782556040519091907fc0f769b798db1ad297fe3afd31e560cc776e71aa6b17dd01432566e83375913c908290a36104a58061005f6000396000f3fe608060405234801561001057600080fd5b506004361061004c5760003560e01c806395981d1014610051578063b2ecc3cb14610066578063fcecbb6114610079578063fd922a4214610103575b600080fd5b61006461005f3660046103b6565b61012e565b005b6100646100743660046103e2565b6102db565b6100c7610087366004610412565b600090815260016020819052604090912060028101548154919092015467ffffffffffffffff80841680151595939492939092600160401b900490911690565b60408051951515865260208601949094529284019190915267ffffffffffffffff908116606084015216608082015260a0015b60405180910390f35b600054610116906001600160a01b031681565b6040516001600160a01b0390911681526020016100fa565b6000546001600160a01b031633146101615760405162461bcd60e51b81526004016101589061042b565b60405180910390fd5b826101ae5760405162461bcd60e51b815260206004820152601960248201527f4d657373616765526563656970743a207a65726f2068617368000000000000006044820152606401610158565b60008381526001602052604090206002015467ffffffffffffffff16156102175760405162461bcd60e51b815260206004820152601e60248201527f4d657373616765526563656970743a20726563656970742065786973747300006044820152606401610158565b60408051608081018252838152602080820184815267ffffffffffffffff428181168587019081524383166060870190815260008b81526001968790528890209651875593519486019490945592516002909401805492518216600160401b026fffffffffffffffffffffffffffffffff1990931694909116939093171790915590518291849186917f25fa8c64841614e19d6244c12fa8f545f67c403142e9f8557de2e95b365ca862916102ce91815260200190565b60405180910390a4505050565b6000546001600160a01b031633146103055760405162461bcd60e51b81526004016101589061042b565b6001600160a01b03811661035b5760405162461bcd60e51b815260206004820152601b60248201527f4d657373616765526563656970743a207a65726f2073657276657200000000006044820152606401610158565b600080546040516001600160a01b03808516939216917fc0f769b798db1ad297fe3afd31e560cc776e71aa6b17dd01432566e83375913c91a3600080546001600160a01b0319166001600160a01b0392909216919091179055565b6000806000606084860312156103cb57600080fd5b505081359360208301359350604090920135919050565b6000602082840312156103f457600080fd5b81356001600160a01b038116811461040b57600080fd5b9392505050565b60006020828403121561042457600080fd5b5035919050565b60208082526024908201527f4d657373616765526563656970743a2063616c6c6572206973206e6f74207365604082015263393b32b960e11b60608201526080019056fea2646970667358221220c3fd4fde0c97f29f39440afa74d3f1c25448d1c2a62df7a571802466a7c6ffd764736f6c63430008140033",
  "linkReferences": {},
  "deployedLinkReferences": {}
}